:020000040800F2
:10000000600A002089010008871400088314000892
:1000100085140008C3030008F11800080000000060
:100020000000000000000000000000008B14000829
:100030001F04000800000000891400088D14000847
:10004000A3010008A3010008A3010008A301000800
:10005000A3010008A3010008A3010008A3010008F0
:10006000A3010008A3010008A3010008A3010008E0
:10007000A3010008A3010008C5030008D10300087C
:10008000DD030008E9030008A3010008A30100083C
:10009000A3010008A3010008A3010008A3010008B0
:1000A000A3010008A3010008A3010008A3010008A0
:1000B000A3010008A3010008A3010008A301000890
:1000C000A3010008A3010008A3010008A301000880
:1000D000A3010008D9180008E5180008A3010008CA
:1000E000A3010008A3010008A301000800F002F822
:1000F00000F03AF80AA090E8000C82448344AAF188
:100100000107DA4501D100F02FF8AFF2090EBAE885
:100110000F0013F0010F18BFFB1A43F0010318473B
:10012000C0200000E0200000103A24BF78C878C149
:10013000FAD8520724BF30C830C144BF04680C60ED
:10014000704700000023002400250026103A28BF35
:1001500078C1FBD8520728BF30C148BF0B60704739
:100160001FB51FBD10B510BD00F0F1F81146FFF727
:10017000F7FF01F0C3FC00F00FF903B4FFF7F2FF43
:1001800003BC00F017F90000094880470948004700
:10019000FEE7FEE7FEE7FEE7FEE7FEE7FEE7FEE737
:1001A000FEE7FEE704480549054A064B7047000094
:1001B000EF140008ED00000860040020600A002031
:1001C0006006002060060020032A40F2308010F014
:1001D000030C00F0158011F8013BBCF1020F6244E2
:1001E00098BF11F801CB00F8013B38BF11F8013B73
:1001F000A2F1040298BF00F801CB38BF00F8013B20
:1002000011F0030300F07180083AC0F0088051F843
:10021000043B083A51F804CBA0E80810F5E7121D9A
:100220005CBF51F8043B40F8043BAFF30080D207B9
:1002300024BF11F8013B11F801CB48BF11F8012B85
:1002400024BF00F8013B00F801CB48BF00F8012BA8
:1002500070474FF000020429C0F0128010F0030C28
:1002600000F01B80CCF1040CBCF1020F18BF00F8A9
:10027000012BA8BF20F8022BA1EB0C0100F00DB858
:100280005FEAC17C24BF00F8012B00F8012B48BFB6
:1002900000F8012B70474FF0000200B5134694465A
:1002A0009646203922BFA0E80C50A0E80C50B1F1CE
:1002B0002001BFF4F7AF090728BFA0E80C5048BFE2
:1002C0000CC05DF804EB890028BF40F8042B08BF80
:1002D000704748BF20F8022B11F0804F18BF00F87C
:1002E000012B704770477047704710B5203AC0F037
:1002F0000B80B1E81850203AA0E81850B1E8185027
:10030000A0E81850BFF4F5AF5FEA027C24BFB1E863
:100310001850A0E8185044BF18C918C0BDE81040D4
:100320005FEA827C24BF51F8043B40F8043B08BFDD
:100330007047D20728BF31F8023B48BF11F8012BA4
:1003400028BF20F8023B48BF00F8012B70477546D4
:1003500000F02CF8AE4605006946534620F0070031
:10036000854618B020B5FFF71DFFBDE820404FF0CF
:1003700000064FF000074FF000084FF0000B21F08F
:100380000701AC46ACE8C009ACE8C009ACE8C0095C
:10039000ACE8C0098D46704710B50446AFF3008045
:1003A0002046BDE81040FFF7E8BE00000048704757
:1003B000FC03002001491820ABBEFEE72600020026
:1003C0007047FEE7014800F09DB8000030030020B0
:1003D000014800F097B80000EC020020014800F04E
:1003E00091B80000B8030020014800F08BB800006D
:1003F0007403002030B590F840500124AC40C56B28
:100400006C60046863604368102B036803D09960D4
:100410000068C26030BD9A600068C16030BD70473E
:1004200072B6FEE710B590F821100022022905D01F
:100430000421816380F82020012010BD01680B6831
:1004400023F00E030B6001680B6823F001030B60BF
:1004500090F84030C46B012101FA03F3636080F827
:10046000211080F82020104610BD000010B590F833
:1004700021100024022903D00421816301243DE0DE
:1004800001680A6822F00E020A6001680A6822F018
:1004900001020A601A4A0168914201D1012121E05A
:1004A000174A1432914201D110211BE0144A28321C
:1004B000914201D1891515E0114A3C32914201D196
:1004C00089140FE00E4A5032914202D14FF480312C
:1004D00008E00B4A6432914202D14FF4801101E0EE
:1004E0004FF08071064A083A5160012180F82110CE
:1004F000002180F82010416B01B18847204610BDD3
:10050000080002402DE9F05FC16B0C6801680B68C0
:10051000D0F840C0042202FA0CF2494DDFF824A1C1
:10052000494E4A4FDFF828B1DFF828E122422CD0AB
:100530005A072AD50A68920603D40A6822F00402F0
:100540000A600168A94201D1042219E0514501D194
:10055000402215E0B14202D14FF4806210E0B9426E
:1005600002D14FF480420BE0594502D14FF4802272
:1005700006E0714502D14FF4800201E04FF0806245
:100580002F4908394A60C16A3BE04FF0020808FA77
:100590000CF818EA040F4FF000094FF0010235D0B3
:1005A0005FEA837832D50B689B0605D40B6823F08D
:1005B0000A030B6080F821200168A94201D10222C0
:1005C00019E0514501D1202215E0B14202D14FF48A
:1005D000007210E0B94202D14FF400520BE05945CD
:1005E00002D14FF4003206E0714502D14FF40012FF
:1005F00001E04FF00072124908394A6080F82090FB
:10060000816A00291AD0BDE8F05F0847082505FA7D
:100610000CF5254212D01B0710D50B6823F00E03F2
:100620000B6090F84010C36B02FA01F159608263CD
:1006300080F8212080F82090016BE2E7BDE8F09F70
:10064000080002401C00024030000240440002400A
:10065000580002406C00024030B528B308C8134966
:1006600014221944B1FBF2F18900C163104981637E
:10067000022141771A6843F6F0718A43D0E90014E9
:100680002143D0E902452C432143046921434469B5
:1006900021438469214311431960002141630122F0
:1006A00042770177084630BD012030BDF8FFFDBF1D
:1006B0000000024070B5044690F820000025012893
:1006C0000CD0012084F8200094F821600020012E35
:1006D00006D084F820000225284670BD022070BD97
:1006E000022684F82160A0632068066826F00106CF
:1006F00006602046FFF77EFEE06A00282068016859
:1007000002D041F00E0106E021F0040101602068F2
:10071000016841F00A0101602068016841F00101AF
:100720000160D9E72DE9F84FDFF8B8910024A9F16D
:10073000040B23460F2709F1040AABF1040EC9E0AC
:100740000125A5402A40AA427DD1674ED1F804C0B8
:10075000ACEB0608B44532D014DCBCF1030F3AD040
:1007600009DCBCF1000F2AD0BCF1010F1CD0BCF198
:10077000020F31D11DE0BCF1110F17D0BCF1120FE7
:100780002AD119E0B8F5881F19D006DCB8F5803FEA
:1007900015D0B8F5801F1FD111E0B8F5001F0ED09D
:1007A000B8F5041F18D10AE0CB6815E0CB681B1D13
:1007B00012E0CB6808330FE0CB680C330CE08B6899
:1007C0002BB1012B4FF0080303D0456104E0042353
:1007D00002E0056100E00023FF2A01D8064601E09F
:1007E00000F104064FEA840501D9A5F12005D6F8E9
:1007F000008007FA05FC28EA0C0803FA05F548EA28
:100800000508C6F800804D68ED0062D5374DAE6929
:1008100046F00106AE61AD6924F0030605F001055E
:100820000095334D06EB050CDCF80850A607360F93
:1008300007FA06F825EA0805DFF8B880404503D135
:100840004FF0000817E044E0DFF8AC80404502D1EB
:100850004FF001080FE0DFF8A480404502D14FF0CF
:10086000020808E0DFF89880404502D14FF0030805
:1008700001E04FF0040808FA06F848EA0508CCF849
:1008800008804D68D9F80060ED024D4601D5164349
:1008900000E096432E604D68DAF80060AD025546E0
:1008A00001D5164300E096432E604D68DBF80060EA
:1008B000AD035D4601D5164300E096432E604D68BA
:1008C000DEF80060ED03754601D5164300E096435F
:1008D0002E60641C0D682A46E5407FF431AFBDE808
:1008E000F88F0000080401400000111000100240C1
:1008F0000000014000080140000C014000100140D0
:100900000014014001488068704700000400002086
:100910000248816802781144816070470400002019
:10092000074810B5016841F010010160032000F094
:1009300075F80F2000F006F800F024F8002010BD34
:100940000020024070B50D4D04464FF47A712878AE
:10095000B1FBF0F00A490968B1FBF0F000F0DCFAF5
:1009600048B9102C07D200222146501E00F036F85C
:1009700000206C6070BD012070BD000004000020EC
:10098000100000200C4808B5816941F00101816127
:10099000816901F001010091C16941F08051C1619B
:1009A000C06900F0805000900448416821F0E06187
:1009B00041F00071416008BD00100240000001409C
:1009C000002809DB00F01F0201219140400980004E
:1009D00000F1E020C0F8001170470000F0B40E4BA9
:1009E0001B680C46C3F30223C3F10705042D00D98D
:1009F0000425191D072901D2002300E0DB1E012672
:100A000006FA05F1491E214099409E40761E164087
:100A10003143F0BC00F06DBF0CED00E0064900F082
:100A2000070208684FF6FF03184040EA0220034A15
:100A300010430860704700000CED00E00000FA056C
:100A40002DE9F0470F46050061D0434E306800F0B5
:100A50000700B84209D2306820F007003843306000
:100A6000306800F00700B84251D128683B4C81073C
:100A700012D5400703D5606840F4E06060602878D4
:100A8000000703D5606840F4605060606068A96842
:100A900020F0F000084360602878C00728D068681C
:100AA000012810D02168022810D0890700292EDAE9
:100AB000616821F0030101436160FFF723FF804675
:100AC00041F288390DE021688903EFE78901EDE7FC
:100AD000FFF718FFA0EB0801494502D90320BDE844
:100AE000F0876068696800F00C00B0EB810FEFD10F
:100AF000306800F00700B8420BD9306820F00700DA
:100B000038433060306800F00700B84201D001205F
:100B1000E5E72878400705D56068E96820F4E060DB
:100B2000084360602878000706D56068296920F4CA
:100B3000605040EAC100606000F038F86168084A1F
:100B4000C1F30311515CC8400649086006480068BB
:100B5000FFF7F8FE0020C2E700200240001002402C
:100B6000C61F0008100000200800002004480549A6
:100B700000684968044AC1F30221515CC8407047CB
:100B80001000002000100240D61F0008044805494C
:100B900000684968044AC1F3C221515CC8407047EB
:100BA0001000002000100240D61F00080E4A5168B5
:100BB0000E4801F00C03042B11D0082B0FD10C4868
:100BC000C1F38343C903C05C0AD55168084AC1F325
:100BD0004041921E515C054A5043B0FBF1F0704712
:100BE00004494843704700000010024000127A0098
:100BF000B61F000800093D002DE9F84F040070D031
:100C00002078C04DC00749D06868C0F38100012832
:100C100007D06868C0F38100022809D16868C00362
:100C200006D52868800339D560680028E7D035E00C
:100C30006068B0F5803F0BD010B1B0F5A02F11D097
:100C4000286820F480302860286820F4802002E0A2
:100C5000286840F480302860606890B1FFF752FE49
:100C600006460AE0286840F480202860F0E700BFCC
:100C7000FFF748FE801B642873D828688003F7D5E7
:100C80000CE0FFF73FFE064605E000BFFFF73AFE27
:100C9000801B6428F0D828688003F7D420789A4E07
:100CA00080074FF001094FF0000839D5686810F04F
:100CB0000C0F07D06868C0F38100022809D168686A
:100CC000C00306D42868800714D52069012808D1FC
:100CD00010E02069B0B1C6F80090FFF713FE074698
:100CE00005E00AE1FFF70EFEC01B0228C4D8286801
:100CF0008007F7D52868616920F0F80040EAC10054
:100D000028600DE0C6F80080FFF7FCFD074604E010
:100D1000FFF7F8FDC01B022823D828688007F7D406
:100D2000207800072CD57948A169D9B1C0F8009086
:100D3000FFF7E8FD074604E0FFF7E4FDC01B0228CB
:100D40000FD8686A8007F7D571484FF4FA510068E8
:100D5000B0FBF1F0009000BF0098411E0091FAD264
:100D60000EE080E0C0F80080FFF7CCFD074604E00D
:100D7000FFF7C8FDC01B022875D8686A8007F7D442
:100D80002078400760D5E8690027C00008D4E869EA
:100D900040F08050E861E869012700F08050009041
:100DA0005C480168C90513D40168834641F4807129
:100DB0000160FFF7A7FD824606E000BFFFF7A2FD36
:100DC000A0EB0A0064284ED8DBF80000C005F5D57A
:100DD000E06801280AD008B1052813D0286A20F05D
:100DE00001002862286A20F0040002E0286A40F02E
:100DF00001002862E06841F2883B98B1FFF782FD6C
:100E000082460BE0286A40F004002862EEE700BF4B
:100E1000FFF778FDA0EB0A0159455AD8286A8007E8
:100E2000F6D50CE0FFF76EFD824605E0FFF76AFDA0
:100E3000A0EB0A0159454CD8286A8007F6D41FB1A7
:100E4000E86920F08050E861E06988B36968C1F31F
:100E50008101022944D00228C6F8608004D0FFF73F
:100E600051FD044638E034E0FFF74CFD074604E04E
:100E7000FFF748FDC01B02282BD828688001F7D453
:100E8000206AB0F5803F05D16868A16820F4003081
:100E900008436860D4E908010843696821F47411C3
:100EA00008436860C6F86090FFF72CFD044606E032
:100EB00025E000BFFFF726FD001B022809D828689F
:100EC0008001F7D51BE000BFFFF71CFD001B0228C7
:100ED00002D90320BDE8F88F28688001F4D40EE021
:100EE0000128F7D06868226A00F48031914204D169
:100EF000616A00F47010884201D00120EAE7002006
:100F0000E8E7000000100240000042428004424234
:100F1000100000200070004010B5401EB0F1807F2E
:100F200001D3012010BD4FF0E02460610F21601754
:100F300000F0DFFC0020A06107202061002010BD30
:100F400070477047F8B5016804460868CA684B697D
:100F500010F00F0F4FF0000559D003F0010602F416
:100F60009077374365D0C10705D0D10503D5616CB3
:100F700041F001016164410705D5D90703D0616CD7
:100F800041F002016164810705D5D90703D0616C86
:100F900041F004016164010707D502F020013143EB
:100FA00003D0616C41F008016164616C00293AD0A2
:100FB000800604D5900602D5204600F04DFB20683F
:100FC0004069616CC0F38010090700D460B320460B
:100FD00000F00DFB20684069400621D520681430E0
:100FE00050E8001F21F0400140E80012002AF5D12E
:100FF000E06BA8B16D494163E06BFFF737FA002859
:1010000011D0E06B416B01B0BDE8F04008478306AA
:101010000FD593060DD52046BDE8F84000F01CBB67
:101020002046FFF78EFFF8BD2046FFF78AFF656474
:10103000F8BD266B2023012E7CD1C6067AD5D606B4
:1010400078D508684868009048694FF00206400665
:1010500040D5E16B086840680004000CE8D0A28D20
:101060008242E5D9E085886920282DD020680C309F
:1010700050E8001F21F4807140E80012002AF5D1E9
:101080002068143050E8001F21F0010140E80012F0
:10109000002AF5D12068143050E8001F21F04001EB
:1010A00040E80012002AF5D184F842302563206818
:1010B0000C3050E8001F21F0100140E80012002A17
:1010C000F5D1E06BFFF7AEF96663A08DE18D401AB4
:1010D00081B22AE0A08DE18D401A81B2E08D002816
:1010E000A6D00029A4D022680C3252E8000F20F4C8
:1010F000907042E80007002FF5D12068143050E8C6
:10110000002F22F0010240E80027002FF5D184F8DB
:101110004230256320680C3050E8002F22F0100286
:1011200040E80023002BF5D166632046FFF708FF57
:10113000F8BDFFE705062BD5150629D594F8410023
:101140002128F5D1A068B0F5805F01D12069B0B148
:10115000206A411C2162216800784860E08C401EB2
:101160000004000CE084E3D12068C16821F0800114
:10117000C1602068C16841F04001C160D8E7206AC1
:101180000088C0F308004860206A801C2062E5E700
:101190004006CDD55006CBD5CA68204622F0400285
:1011A000CA6084F8413000F06BF9C1E7F11400081F
:1011B00070B5040004D094F84100002510B106E099
:1011C000012070BD84F84050204600F023F8242010
:1011D00084F841002068C16821F40051C1602046B4
:1011E00000F09CFA2068016921F4904101612068B7
:1011F000416921F02A0141612068C16841F4005130
:10120000C1606564202084F8410084F84200656371
:10121000002070BD2DE9F04385B0002500950195B3
:10122000029503950446DFF87481D0F800C05C484D
:10123000022103235B4A012780264FF01009C44591
:1012400051D1D0F818C04CF4804CC0F818C0D0F878
:1012500018C00CF4804CCDF810C0D0F818C04CF079
:10126000040CC0F818C08069039300F004000490D7
:101270000802CDE90001694690461046FFF752FA90
:10128000F0008DE8A10069464046FFF74BFA474F52
:101290004548C7E90005C7E902563D617D61BD616A
:1012A0003846FD61FFF7D8F908B1FFF7B9F8E763F1
:1012B0007C623F4F3C48C7E902563D617D61BD619C
:1012C0001438FD61C7E900093846FFF7C5F908B1D0
:1012D000FFF7A6F8A7630022114625207C62FFF7DE
:1012E0007DFB252055E0DFF8CC80C44553D1D0F8F4
:1012F0001CC04CF4003CC0F81CC0D0F81CC00CF45E
:10130000003CCDF810C0D0F818C04CF0040CC0F868
:1013100018C08069039300F0040004900420CDE914
:101320000001694690461046FFF7FCF908208DE859
:10133000A10069464046FFF7F5F91F4F1A48C7E973
:1013400002563D617D61BD612830FD61C7E900093C
:101350003846FFF781F908B1FFF762F8A7637C62AE
:101360001148164F1430C7E90005C7E902563D6120
:101370007D61BD613846FD61FFF76EF908B1FFF789
:101380004FF8E7630022114626207C62FFF726FB18
:101390002620FFF715FB05B0BDE8F08300380140BB
:1013A000001002400008014058000240EC020020FA
:1013B000300300200044004074030020B8030020E4
:1013C00090F84230202B01D00220704721B11AB191
:1013D0000023036300F0FEB9012070477047704797
:1013E0002DE9F843044690F84100984616460D460C
:1013F000202802D00220BDE8F88385B17EB100200C
:101400006064212084F84100FFF77CFAA6848146BD
:10141000E684A0682027B0F5805F02D003E00120B9
:10142000E9E7206910B12E4600250EE000260CE009
:101430008021204600F016FAA8B9C6B116F8010BB3
:1014400021684860E08C401EE084E08C4B464FF001
:101450000002CDF800800028EAD14FF0400120467C
:1014600000F000FA40B184F841700320C3E735F87A
:10147000020BC0F30800E3E784F841700020BAE7EC
:101480007047FEE7FEE7FEE770477047FFF740BA98
:1014900030B58FB028216846FEF7FDFE14210AA85A
:1014A000FEF7F9FE01210804CDE9001000240294A2
:1014B00002250491CDE907504FF4E01009906846E9
:1014C000FFF79AFB08B172B6FEE70F20CDE90A05D7
:1014D0004FF48060CDE90C4002210AA80E94FFF77A
:1014E000AFFA002801D072B6FEE70FB030BD7047EA
:1014F00010B5406A0021C185C184FFF722FD10BDEF
:1015000070B5446A2068406994F84110C0F3C01077
:101510000025212904D118B1E584204600F08EF879
:101520002068406994F84210C0F38010222904D149
:1015300018B1E585204600F05AF8606C40F01000C4
:1015400060642046FFF7FDFC70BD10B50146406A9F
:10155000096809684FF0000289062ED4C285016827
:101560000C3151E8003F23F4807341E80034002C33
:10157000F5D10168143151E8003F23F0010341E83F
:101580000034002CF5D10168143151E8003F23F0FC
:10159000400341E80034002CF5D1202180F84210AE
:1015A000016B012909D101680C3151E8003F23F09A
:1015B000100341E80034002CF5D14263016B01298E
:1015C00002D0FFF70BFF10BD818DFFF7B9FC10BDF6
:1015D00010B5406A01214163016B012902D0FFF778
:1015E000FEFE10BD818D4908FFF7AAFC10BD016801
:1015F0000C3151E8002F22F4907241E80023002BB7
:10160000F5D10168143151E8002F22F0010241E8C0
:101610000023002BF5D1016B012909D101680C31A0
:1016200051E8002F22F0100241E80023002BF5D1F1
:10163000202180F8421000210163704701680C31BD
:1016400051E8002F22F0C00241E80023002BF5D121
:10165000202180F84110704708B590F842102229E7
:1016600001D0022008BD82684FF480539A4201D114
:10167000016921B1816A9A421BD04AB10AE002682D
:10168000816A5268C2F308020A80816A891C08E0F4
:10169000026972B10268526802F07F020A70816AC0
:1016A000491C8162C18D491E0904090CC18503D002
:1016B0001BE002685268F1E70168CA6822F0200264
:1016C000CA600168CA6822F48072CA6001684A6907
:1016D00022F001024A61202180F84210002141637A
:1016E000026B012A03D0FFF779FE002008BD0163D9
:1016F00001680C3151E8002F22F0100241E800236C
:10170000002BF5D101680A68D20602D50A6849683B
:101710000091818DFFF714FCE7E7000070B50446E7
:1017200000680169E26821F44051114301612169B7
:10173000A0680843616908432168CA6841F20C63E4
:101740009A430243CA6020684169A26921F440714A
:10175000114341611E492068884202D1FFF716FA01
:1017600001E0FFF703FA00EBC00101EB0012606833
:1017700064218000B2FBF0F3B3FBF1F36FF01806C5
:101780007343B2FBF0F5B2FBF0F605EB83053223B1
:1017900003EB0515B5FBF1F5B6FBF1F605F0F00529
:1017A00005EB0615B2FBF0F6B2FBF0F0B0FBF1F082
:1017B0006FF01802504306EB800003EB0010B0FB03
:1017C000F1F0216800F00F002844886070BD00002F
:1017D0000038014038B581620446828500201346F6
:1017E0006064222284F84220E56B1B4AAA62E56B02
:1017F0001A4AEA62E56B1A4A2A63E26B50630A46A8
:101800002168E06B091DFEF755FF206801684068FC
:101810000090206948B120680C3050E8001F41F466
:10182000807140E80012002AF5D12068143050E899
:10183000001F41F0010140E80012002AF5D12068A4
:10184000143050E8001F41F0400140E80012002A27
:10185000F5D1002038BD00004B150008D115000857
:10186000011500082DE9F843984617460D46044631
:10187000089E24E0701C22D0FFF744F8A0EB08007B
:10188000B0421AD8CEB12068C168490717D5802D5B
:1018900015D0402D13D00168C94309070FD4016842
:1018A0000025406800902046FFF7A1FE08206064F4
:1018B00084F840500120BDE8F8830320FBE720684E
:1018C000006835EA000004D00020B842D2D00020E1
:1018D000F1E70120F9E700000148FFF733BB000002
:1018E000140000200148FFF72DBB00005C00002021
:1018F000FEE70907090E002804DB00F1E02080F86C
:101900000014704700F00F0000F1E02080F8141D73
:1019100070477CB51546AA221A70FF225A7098703B
:101920001C46DD70181D2A46FEF74EFC281DC6B267
:10193000AD1CE9B201AB6A46A01C00F00BF89DF8A3
:101940000000A055761CF0B29DF804102154401CF4
:10195000C0B27CBDF0B500252E462C4606E0075DE2
:10196000641C3D44EDB22E44F6B2E4B28C42F6D390
:1019700015701E70F0BD10B586B0044608788DF85D
:10198000000048788DF8010088788DF802004888BA
:1019900002AB000A8DF8030008798DF8040048793D
:1019A0008DF8050088798DF80600072269463420F5
:1019B000FFF7AFFF0246642302A92046FFF710FDA0
:1019C00006B010BD10B586B0044608788DF800004A
:1019D00048788DF8010088788DF80200488802ABBD
:1019E000000A8DF8030008798DF804008888072222
:1019F000000A8DF8050088798DF8060069465120A7
:101A0000FFF787FF0246642302A92046FFF7E8FCA0
:101A100006B010BD10B5A8B1A1B100220A608A803D
:101A20008A71038903EB83035B00B3F5803F01D325
:101A30004FF6FF734B80047B012344B1052C03D088
:101A40000C7002E0002010BD0A704A7002E00B70BA
:101A50005A244C70407B642801D20A7100E00B715B
:101A60004A718A71012010BD2DE9F0410E46040033
:101A70001CD0DEB100273760B780B771012030700D
:101A800094F82B00DFF854807070E068414600F055
:101A9000C5F905462069414600F0C0F910490446E1
:101AA0004FF047408D4204DD0D4605E00020BDE8C3
:101AB000F081854200D905468C4201DD0C4602E0EA
:101AC000844200D90446284600F08CF970802046F4
:101AD00000F088F9B080B7710120E8E700007A448F
:101AE00000FEFF460B88DAB24240034830F812008D
:101AF00080EA132008807047DE1F000892B0FEF7CE
:101B00000FFFFFF7C5FC5048816941F0200181615A
:101B1000816901F020010091816941F00401816136
:101B2000816901F004010091416941F001014161C5
:101B30004069002200F00100009002210E20FEF713
:101B40004DFF0E20FEF73CFF002203210F20FEF781
:101B500045FF0F20FEF734FF002202211020FEF780
:101B60003DFF1020FEF72CFF002203211120FEF77D
:101B700035FF1120FEF724FF354834494FF4E13694
:101B800000240160C0E901640C27C460C0E9044777
:101B90008461C461FFF70CFB08B172B6FEE72C4DFF
:101BA0002C4848352860C5E90164EC60C5E9044764
:101BB000AC612846EC61FFF7FBFA08B172B6FEE7AC
:101BC0002348903000F0FBF823494FF48072A1F5D0
:101BD000C870FFF7F5FB214CE86B00684068C0F562
:101BE000807020801C4E09E06088315C6088401C59
:101BF000C0B260801648903000F056F860882188A6
:101C00008842F1D112486946903000F03BF840B16B
:101C10000FA96846FFF728FF18B10FA90C48FFF776
:101C2000D1FE0B480BA9903000F01AF80028D3D051
:101C30000FA90BA8FFF7EEFE0028CDD00FA904488E
:101C4000FFF799FEC8E7000000100240003801408D
:101C50001400002000440040EC010020000000209F
:101C600010B5044690F80D010B46002809D00E224D
:101C700004F59D711846FEF7A7FA002084F80D01BF
:101C8000012010BD10B5044690F80C010B46002849
:101C900009D02C2204F587711846FEF795FA00202A
:101CA00084F80C01012010BD2DE9F04104460078B4
:101CB0000A4600250727012604F58471092878D2F1
:101CC000DFE800F00510161C222831424600FE2AEB
:101CD00072D126704FF6FF70A4F808010020A4F816
:101CE000060169E062701046FFF7FCFE022018E072
:101CF000A2701046FFF7F6FE032012E0E2701046D5
:101D0000FFF7F0FE04200CE022711046FFF7EAFE18
:101D1000052006E062711046FFF7E4FE607888B1A6
:101D20000620207048E0B4F80601A31D461CA4F864
:101D30000661C2541046FFF7D5FEB4F8060161787B
:101D4000884239D3277037E084F80A210820E8E771
:101D500084F80B2160796A2802D0842805D028E015
:101D600060782C2825D1312003E060780E2820D11E
:101D70005520FFF7B7FEB4F80A01B4F80811814204
:101D800017D160796A2802D0842809D011E02C226A
:101D9000A11D04F58770FEF717FA84F80C6107E0BF
:101DA0000E22A11D04F59D70FEF70EFA84F80D6158
:101DB0000125204600F00CF82846BDE8F08110B55A
:101DC00004464FF4A471FEF744FA0020207010BDC1
:101DD00000210170A0F806114FF6FF71A0F808115C
:101DE0007047000041000B0ED3F19E0208D950F459
:101DF00000034FEA032323FA02F048BF4042704732
:101E000010B500F08CF800BF499224800020704784
:101E10006FF0004282EA2000704700004FF47F0C10
:101E20001CEAD0121EBF1CEAD11392EA0C0F93EAEF
:101E30000C0F00F0478090EA010F48BF42F4807217
:101E40004FF0004C4CEA00204CEA012102EB030267
:101E5000A0FB0113A2F50002002918BF43F0010303
:101E60005B0028BF4FEA330342EB22425FEA132CA8
:101E70004CEBC2502EBFBCEB436FB2F57C0F7047EA
:101E80004FEA036CBCF1004F08BF20F00100B2F52F
:101E90007C0F38BF70470BD582F0FF0212F5803FF0
:101EA000C8BF704700F1C040D8BF00F00040704785
:101EB00000F5000C5FEA4C0C48BF7047B0F1C04021
:101EC00000F073B890EA010F0CEAD11348BF42F456
:101ED0008072624538BF634504D280EA010000F099
:101EE0000040704710B500F01AF800BF8900013EAD
:101EF00000F007B800F009B85FEA410C5FEA1C6C1B
:101F000008D080EA010000F050B85FEA400C5FEAB8
:101F10001C6CF6D14FF00040A0F5800070470EF128
:101F2000020E2EF0030E5EF8044B244204D44FEA56
:101F30004102B2F17F4F11D84FEA4003B3F17F4F16
:101F40000CD80ED14FEAD07CB2F17F4F0CEB4C0C89
:101F50000CF1020C08BF4CEBD17C04E04FF0080CF4
:101F600001E04FEAD17C0CEB4C0324FA03F404F0BB
:101F70000704B4F1040C06D20EEB840CBDE810404B
:101F80004CF0010C6047DFE80CF0070802024FF04C
:101F90000040A0F5800010BD0846420018BFD2F1F5
:101FA000807288BF00F0004010BDFF2141EAD05090
:101FB000C0057047010202030405060708090A0B61
:101FC0000C0D0E0F101000000000000000000102B8
:101FD00003040607080900000000010203040000D2
:101FE000891112239B322446AD573665BF74488C45
:101FF000C19D5AAFD3BE6CCAE5DB7EE9F7F881100C
:10200000080193331A22A5562C47B7753E64C99C24
:10201000408DDBBF52AEEDDA64CBFFF976E80221EA
:102020008B30100299132667AF763444BD554AAD04
:10203000C3BC588ED19F6EEBE7FA7CC8F5D98331CB
:102040000A2091121803A7772E66B5543C45CBBDE4
:1020500042ACD99E508FEFFB66EAFDD874C90442AA
:102060008D5316619F702004A9153227BB364CCEC4
:10207000C5DF5EEDD7FC6888E1997AABF3BA85528B
:102080000C4397711E60A1142805B3373A26CDDEA4
:1020900044CFDFFD56ECE9986089FBBB72AA06636A
:1020A0008F7214409D512225AB343006B9174EEF84
:1020B000C7FE5CCCD5DD6AA9E3B8788AF19B87734B
:1020C0000E6295501C41A3352A24B1163807CFFF64
:1020D00046EEDDDC54CDEBB962A8F99A708B08842A
:1020E00081951AA793B62CC2A5D33EE1B7F040085C
:1020F000C919522BDB3A644EED5F766DFF7C8994F3
:1021000000859BB712A6ADD224C3BFF136E0C1183B
:102110004809D33B5A2AE55E6C4FF77D7E6C0AA5D1
:1021200083B4188691972EE3A7F23CC0B5D142291B
:10213000CB38500AD91B666FEF7E744CFD5D8BB5B2
:1021400002A499961087AFF326E2BDD034C1C339FB
:102150004A28D11A580BE77F6E6EF55C7C4D0CC691
:1021600085D71EE597F42880A1913AA3B3B2444ADB
:10217000CD5B5669DF78600CE91D722FFB3E8DD672
:1021800004C79FF516E4A9902081BBB332A2C55ABB
:102190004C4BD7795E68E11C680DF33F7A2E0EE751
:1021A00087F61CC495D52AA1A3B03882B193466B9B
:1021B000CF7A5448DD59622DEB3C700EF91F8FF732
:1021C00006E69DD414C5ABB122A0B9923083C77B7B
:1021D0004E6AD5585C49E33D6A2CF11E780F000029
:1021E0000022000800000020140000002801000860
:1021F00014220008140000204C0A000044010008CA
:1022000000000000010000001000000000000000BD
:0422100000127A003E
:04000005080000ED02
:00000001FF
